{
  "contractName": "Energy",
  "abi": [
    {
      "inputs": [],
      "payable": false,
      "stateMutability": "nonpayable",
      "type": "constructor"
    },
    {
      "constant": true,
      "inputs": [],
      "name": "admin",
      "outputs": [
        {
          "internalType": "address",
          "name": "admin_account",
          "type": "address"
        }
      ],
      "payable": false,
      "stateMutability": "view",
      "type": "function"
    },
    {
      "constant": true,
      "inputs": [
        {
          "internalType": "uint256",
          "name": "",
          "type": "uint256"
        }
      ],
      "name": "approved",
      "outputs": [
        {
          "internalType": "string",
          "name": "date",
          "type": "string"
        },
        {
          "internalType": "uint256",
          "name": "time_period",
          "type": "uint256"
        },
        {
          "internalType": "address",
          "name": "from",
          "type": "address"
        },
        {
          "internalType": "address",
          "name": "to",
          "type": "address"
        },
        {
          "internalType": "int256",
          "name": "kwh",
          "type": "int256"
        },
        {
          "internalType": "uint256",
          "name": "price_c",
          "type": "uint256"
        },
        {
          "internalType": "int256",
          "name": "id",
          "type": "int256"
        },
        {
          "internalType": "bool",
          "name": "approve_from",
          "type": "bool"
        },
        {
          "internalType": "bool",
          "name": "approve_to",
          "type": "bool"
        },
        {
          "internalType": "bool",
          "name": "optimal",
          "type": "bool"
        }
      ],
      "payable": false,
      "stateMutability": "view",
      "type": "function"
    },
    {
      "constant": true,
      "inputs": [
        {
          "internalType": "int256",
          "name": "",
          "type": "int256"
        }
      ],
      "name": "approved_trades",
      "outputs": [
        {
          "internalType": "string",
          "name": "date",
          "type": "string"
        },
        {
          "internalType": "uint256",
          "name": "time_period",
          "type": "uint256"
        },
        {
          "internalType": "address",
          "name": "from",
          "type": "address"
        },
        {
          "internalType": "address",
          "name": "to",
          "type": "address"
        },
        {
          "internalType": "int256",
          "name": "kwh",
          "type": "int256"
        },
        {
          "internalType": "uint256",
          "name": "price_c",
          "type": "uint256"
        },
        {
          "internalType": "int256",
          "name": "id",
          "type": "int256"
        },
        {
          "internalType": "bool",
          "name": "approve_from",
          "type": "bool"
        },
        {
          "internalType": "bool",
          "name": "approve_to",
          "type": "bool"
        },
        {
          "internalType": "bool",
          "name": "optimal",
          "type": "bool"
        }
      ],
      "payable": false,
      "stateMutability": "view",
      "type": "function"
    },
    {
      "constant": true,
      "inputs": [],
      "name": "dual_tol",
      "outputs": [
        {
          "internalType": "int256",
          "name": "",
          "type": "int256"
        }
      ],
      "payable": false,
      "stateMutability": "view",
      "type": "function"
    },
    {
      "constant": true,
      "inputs": [],
      "name": "global_dres",
      "outputs": [
        {
          "internalType": "int256",
          "name": "",
          "type": "int256"
        }
      ],
      "payable": false,
      "stateMutability": "view",
      "type": "function"
    },
    {
      "constant": true,
      "inputs": [],
      "name": "global_pres",
      "outputs": [
        {
          "internalType": "int256",
          "name": "",
          "type": "int256"
        }
      ],
      "payable": false,
      "stateMutability": "view",
      "type": "function"
    },
    {
      "constant": true,
      "inputs": [],
      "name": "init",
      "outputs": [
        {
          "internalType": "bool",
          "name": "",
          "type": "bool"
        }
      ],
      "payable": false,
      "stateMutability": "view",
      "type": "function"
    },
    {
      "constant": true,
      "inputs": [],
      "name": "is_optimal",
      "outputs": [
        {
          "internalType": "bool",
          "name": "",
          "type": "bool"
        }
      ],
      "payable": false,
      "stateMutability": "view",
      "type": "function"
    },
    {
      "constant": true,
      "inputs": [],
      "name": "iteration",
      "outputs": [
        {
          "internalType": "uint256",
          "name": "",
          "type": "uint256"
        }
      ],
      "payable": false,
      "stateMutability": "view",
      "type": "function"
    },
    {
      "constant": true,
      "inputs": [],
      "name": "iteration_complete",
      "outputs": [
        {
          "internalType": "bool",
          "name": "",
          "type": "bool"
        }
      ],
      "payable": false,
      "stateMutability": "view",
      "type": "function"
    },
    {
      "constant": true,
      "inputs": [
        {
          "internalType": "address",
          "name": "",
          "type": "address"
        }
      ],
      "name": "localres",
      "outputs": [
        {
          "internalType": "address",
          "name": "from",
          "type": "address"
        },
        {
          "internalType": "int256",
          "name": "primal_res",
          "type": "int256"
        },
        {
          "internalType": "int256",
          "name": "dual_res",
          "type": "int256"
        },
        {
          "internalType": "uint256",
          "name": "iteration",
          "type": "uint256"
        }
      ],
      "payable": false,
      "stateMutability": "view",
      "type": "function"
    },
    {
      "constant": true,
      "inputs": [],
      "name": "localresCounter",
      "outputs": [
        {
          "internalType": "uint256",
          "name": "",
          "type": "uint256"
        }
      ],
      "payable": false,
      "stateMutability": "view",
      "type": "function"
    },
    {
      "constant": true,
      "inputs": [
        {
          "internalType": "uint256",
          "name": "",
          "type": "uint256"
        }
      ],
      "name": "localres_list",
      "outputs": [
        {
          "internalType": "address",
          "name": "from",
          "type": "address"
        },
        {
          "internalType": "int256",
          "name": "primal_res",
          "type": "int256"
        },
        {
          "internalType": "int256",
          "name": "dual_res",
          "type": "int256"
        },
        {
          "internalType": "uint256",
          "name": "iteration",
          "type": "uint256"
        }
      ],
      "payable": false,
      "stateMutability": "view",
      "type": "function"
    },
    {
      "constant": true,
      "inputs": [],
      "name": "numApprovedTrades",
      "outputs": [
        {
          "internalType": "uint256",
          "name": "",
          "type": "uint256"
        }
      ],
      "payable": false,
      "stateMutability": "view",
      "type": "function"
    },
    {
      "constant": true,
      "inputs": [
        {
          "internalType": "address",
          "name": "",
          "type": "address"
        }
      ],
      "name": "peers",
      "outputs": [
        {
          "internalType": "int256",
          "name": "id",
          "type": "int256"
        },
        {
          "internalType": "address",
          "name": "account",
          "type": "address"
        },
        {
          "internalType": "bool",
          "name": "prosumer",
          "type": "bool"
        },
        {
          "internalType": "uint8",
          "name": "building",
          "type": "uint8"
        },
        {
          "internalType": "bool",
          "name": "isPeerActive",
          "type": "bool"
        },
        {
          "internalType": "uint256",
          "name": "num_trades_pending",
          "type": "uint256"
        }
      ],
      "payable": false,
      "stateMutability": "view",
      "type": "function"
    },
    {
      "constant": true,
      "inputs": [],
      "name": "peersCount",
      "outputs": [
        {
          "internalType": "int256",
          "name": "",
          "type": "int256"
        }
      ],
      "payable": false,
      "stateMutability": "view",
      "type": "function"
    },
    {
      "constant": true,
      "inputs": [],
      "name": "peersTrading",
      "outputs": [
        {
          "internalType": "uint256",
          "name": "",
          "type": "uint256"
        }
      ],
      "payable": false,
      "stateMutability": "view",
      "type": "function"
    },
    {
      "constant": true,
      "inputs": [],
      "name": "pri_tol",
      "outputs": [
        {
          "internalType": "int256",
          "name": "",
          "type": "int256"
        }
      ],
      "payable": false,
      "stateMutability": "view",
      "type": "function"
    },
    {
      "constant": true,
      "inputs": [],
      "name": "tradeCountIter",
      "outputs": [
        {
          "internalType": "uint256",
          "name": "",
          "type": "uint256"
        }
      ],
      "payable": false,
      "stateMutability": "view",
      "type": "function"
    },
    {
      "constant": true,
      "inputs": [
        {
          "internalType": "uint256",
          "name": "",
          "type": "uint256"
        }
      ],
      "name": "trade_bids",
      "outputs": [
        {
          "internalType": "string",
          "name": "date",
          "type": "string"
        },
        {
          "internalType": "uint256",
          "name": "time_period",
          "type": "uint256"
        },
        {
          "internalType": "address",
          "name": "from",
          "type": "address"
        },
        {
          "internalType": "address",
          "name": "to",
          "type": "address"
        },
        {
          "internalType": "int256",
          "name": "kwh",
          "type": "int256"
        },
        {
          "internalType": "uint256",
          "name": "price",
          "type": "uint256"
        },
        {
          "internalType": "uint256",
          "name": "iteration",
          "type": "uint256"
        },
        {
          "internalType": "int256",
          "name": "id",
          "type": "int256"
        }
      ],
      "payable": false,
      "stateMutability": "view",
      "type": "function"
    },
    {
      "constant": true,
      "inputs": [
        {
          "internalType": "int256",
          "name": "",
          "type": "int256"
        }
      ],
      "name": "trade_bids_mapping",
      "outputs": [
        {
          "internalType": "string",
          "name": "date",
          "type": "string"
        },
        {
          "internalType": "uint256",
          "name": "time_period",
          "type": "uint256"
        },
        {
          "internalType": "address",
          "name": "from",
          "type": "address"
        },
        {
          "internalType": "address",
          "name": "to",
          "type": "address"
        },
        {
          "internalType": "int256",
          "name": "kwh",
          "type": "int256"
        },
        {
          "internalType": "uint256",
          "name": "price",
          "type": "uint256"
        },
        {
          "internalType": "uint256",
          "name": "iteration",
          "type": "uint256"
        },
        {
          "internalType": "int256",
          "name": "id",
          "type": "int256"
        }
      ],
      "payable": false,
      "stateMutability": "view",
      "type": "function"
    },
    {
      "constant": true,
      "inputs": [],
      "name": "trade_penCount",
      "outputs": [
        {
          "internalType": "uint256",
          "name": "",
          "type": "uint256"
        }
      ],
      "payable": false,
      "stateMutability": "view",
      "type": "function"
    },
    {
      "constant": true,
      "inputs": [
        {
          "internalType": "uint256",
          "name": "",
          "type": "uint256"
        }
      ],
      "name": "trades_pending",
      "outputs": [
        {
          "internalType": "string",
          "name": "date",
          "type": "string"
        },
        {
          "internalType": "uint256",
          "name": "time_period",
          "type": "uint256"
        },
        {
          "internalType": "address",
          "name": "from",
          "type": "address"
        },
        {
          "internalType": "address",
          "name": "to",
          "type": "address"
        },
        {
          "internalType": "int256",
          "name": "kwh",
          "type": "int256"
        },
        {
          "internalType": "uint256",
          "name": "price_c",
          "type": "uint256"
        },
        {
          "internalType": "int256",
          "name": "id",
          "type": "int256"
        },
        {
          "internalType": "bool",
          "name": "approve_from",
          "type": "bool"
        },
        {
          "internalType": "bool",
          "name": "approve_to",
          "type": "bool"
        },
        {
          "internalType": "bool",
          "name": "optimal",
          "type": "bool"
        }
      ],
      "payable": false,
      "stateMutability": "view",
      "type": "function"
    },
    {
      "constant": true,
      "inputs": [
        {
          "internalType": "int256",
          "name": "",
          "type": "int256"
        }
      ],
      "name": "trades_pending_mapping",
      "outputs": [
        {
          "internalType": "string",
          "name": "date",
          "type": "string"
        },
        {
          "internalType": "uint256",
          "name": "time_period",
          "type": "uint256"
        },
        {
          "internalType": "address",
          "name": "from",
          "type": "address"
        },
        {
          "internalType": "address",
          "name": "to",
          "type": "address"
        },
        {
          "internalType": "int256",
          "name": "kwh",
          "type": "int256"
        },
        {
          "internalType": "uint256",
          "name": "price_c",
          "type": "uint256"
        },
        {
          "internalType": "int256",
          "name": "id",
          "type": "int256"
        },
        {
          "internalType": "bool",
          "name": "approve_from",
          "type": "bool"
        },
        {
          "internalType": "bool",
          "name": "approve_to",
          "type": "bool"
        },
        {
          "internalType": "bool",
          "name": "optimal",
          "type": "bool"
        }
      ],
      "payable": false,
      "stateMutability": "view",
      "type": "function"
    },
    {
      "constant": false,
      "inputs": [
        {
          "internalType": "address",
          "name": "new_admin",
          "type": "address"
        }
      ],
      "name": "setAdmin",
      "outputs": [],
      "payable": false,
      "stateMutability": "nonpayable",
      "type": "function"
    },
    {
      "constant": false,
      "inputs": [
        {
          "internalType": "address",
          "name": "acc",
          "type": "address"
        },
        {
          "internalType": "bool",
          "name": "role",
          "type": "bool"
        },
        {
          "internalType": "uint8",
          "name": "build",
          "type": "uint8"
        }
      ],
      "name": "addPeer",
      "outputs": [],
      "payable": false,
      "stateMutability": "nonpayable",
      "type": "function"
    },
    {
      "constant": false,
      "inputs": [
        {
          "internalType": "string",
          "name": "date_set",
          "type": "string"
        },
        {
          "internalType": "uint256",
          "name": "time_period",
          "type": "uint256"
        }
      ],
      "name": "startTradingPer",
      "outputs": [],
      "payable": false,
      "stateMutability": "nonpayable",
      "type": "function"
    },
    {
      "constant": false,
      "inputs": [],
      "name": "registerPeer",
      "outputs": [],
      "payable": false,
      "stateMutability": "nonpayable",
      "type": "function"
    },
    {
      "constant": false,
      "inputs": [
        {
          "internalType": "string",
          "name": "date_peer",
          "type": "string"
        },
        {
          "internalType": "uint256",
          "name": "time_period",
          "type": "uint256"
        },
        {
          "internalType": "address",
          "name": "s",
          "type": "address"
        },
        {
          "internalType": "address",
          "name": "buy",
          "type": "address"
        },
        {
          "internalType": "int256",
          "name": "amount",
          "type": "int256"
        },
        {
          "internalType": "uint256",
          "name": "price_c",
          "type": "uint256"
        }
      ],
      "name": "addTradeBid",
      "outputs": [],
      "payable": false,
      "stateMutability": "nonpayable",
      "type": "function"
    },
    {
      "constant": false,
      "inputs": [
        {
          "internalType": "int256",
          "name": "p_res",
          "type": "int256"
        },
        {
          "internalType": "int256",
          "name": "d_res",
          "type": "int256"
        }
      ],
      "name": "addLocalRes",
      "outputs": [],
      "payable": false,
      "stateMutability": "nonpayable",
      "type": "function"
    },
    {
      "constant": false,
      "inputs": [
        {
          "internalType": "string",
          "name": "date_peer",
          "type": "string"
        },
        {
          "internalType": "uint256",
          "name": "time_period",
          "type": "uint256"
        },
        {
          "internalType": "address",
          "name": "from",
          "type": "address"
        },
        {
          "internalType": "address",
          "name": "to",
          "type": "address"
        },
        {
          "internalType": "int256",
          "name": "amount",
          "type": "int256"
        },
        {
          "internalType": "uint256",
          "name": "price",
          "type": "uint256"
        }
      ],
      "name": "createTrade",
      "outputs": [],
      "payable": false,
      "stateMutability": "nonpayable",
      "type": "function"
    },
    {
      "constant": false,
      "inputs": [
        {
          "internalType": "string",
          "name": "trade_date",
          "type": "string"
        },
        {
          "internalType": "uint256",
          "name": "trade_time",
          "type": "uint256"
        },
        {
          "internalType": "address",
          "name": "trade_from",
          "type": "address"
        },
        {
          "internalType": "address",
          "name": "trade_to",
          "type": "address"
        },
        {
          "internalType": "int256",
          "name": "trade_kwh",
          "type": "int256"
        },
        {
          "internalType": "uint256",
          "name": "trade_price_c",
          "type": "uint256"
        },
        {
          "internalType": "int256",
          "name": "id",
          "type": "int256"
        },
        {
          "internalType": "bool",
          "name": "trade_approve_from",
          "type": "bool"
        },
        {
          "internalType": "bool",
          "name": "trade_approve_to",
          "type": "bool"
        },
        {
          "internalType": "bool",
          "name": "trade_optimal",
          "type": "bool"
        },
        {
          "internalType": "string",
          "name": "date_approved",
          "type": "string"
        },
        {
          "internalType": "uint256",
          "name": "time_approved",
          "type": "uint256"
        },
        {
          "internalType": "int256",
          "name": "trades_pending_ind",
          "type": "int256"
        }
      ],
      "name": "approveTrade",
      "outputs": [],
      "payable": false,
      "stateMutability": "nonpayable",
      "type": "function"
    },
    {
      "constant": false,
      "inputs": [],
      "name": "deregisterPeer",
      "outputs": [],
      "payable": false,
      "stateMutability": "nonpayable",
      "type": "function"
    }
  ],
  "bytecode": "0x608060405234801561001057600080fd5b506040518060200160405280739dd4ca3efd1f01f7e043a049b3e8fddd924085eb73ffffffffffffffffffffffffffffffffffffffff16815250600260008201518160000160006101000a81548173ffffffffffffffffffffffffffffffffffffffff021916908373ffffffffffffffffffffffffffffffffffffffff160217905550905050600760008190555060076001819055506000600881905550613fa9806100bd6000396000f3fe608060405234801561001057600080fd5b50600436106101fb5760003560e01c80637d4061e61161011a578063d629057d116100ad578063e1c7392a1161007c578063e1c7392a14610f63578063ee75e32f14610f85578063ef27bccc14611178578063f6167d5314611196578063f851a440146112e0576101fb565b8063d629057d14610d05578063d74294dc14610e4f578063d98a69c314610ee8578063dbeb98b814610f06576101fb565b8063acbfcf04116100e9578063acbfcf0414610b8f578063ae6664e014610b99578063ae979e1414610bb7578063c43642b614610ce7576101fb565b80637d4061e6146108325780637fc408f71461097c5780639a7d94e314610a41578063a955f29f14610a5f576101fb565b80633850442b116101925780636168474f116101615780636168474f1461072b5780636e563eb614610749578063704b6c021461076b57806370e088eb146107af576101fb565b80633850442b1461048857806338c3b19c146105d25780633f970530146106eb57806343c3ffe81461070d576101fb565b80631c8590ba116101ce5780631c8590ba1461038d5780631edbfef4146104425780632095443514610460578063312286261461046a576101fb565b80630c0399a414610200578063163cdcc51461021e5780631a20cede146102565780631a87df1f1461036f575b600080fd5b61020861132a565b6040518082815260200191505060405180910390f35b6102546004803603604081101561023457600080fd5b810190808035906020019092919080359060200190929190505050611330565b005b61036d600480360360c081101561026c57600080fd5b810190808035906020019064010000000081111561028957600080fd5b82018360208201111561029b57600080fd5b803590602001918460018302840111640100000000831117156102bd57600080fd5b91908080601f016020809104026020016040519081016040528093929190818152602001838380828437600081840152601f19601f82011690508083019250505050505050919291929080359060200190929190803573ffffffffffffffffffffffffffffffffffffffff169060200190929190803573ffffffffffffffffffffffffffffffffffffffff16906020019092919080359060200190929190803590602001909291905050506115c2565b005b610377611d0d565b6040518082815260200191505060405180910390f35b6103cf600480360360208110156103a357600080fd5b81019080803573ffffffffffffffffffffffffffffffffffffffff169060200190929190505050611d13565b604051808781526020018673ffffffffffffffffffffffffffffffffffffffff1673ffffffffffffffffffffffffffffffffffffffff168152602001851515151581526020018460ff1660ff16815260200183151515158152602001828152602001965050505050505060405180910390f35b61044a611d96565b6040518082815260200191505060405180910390f35b610468611d9c565b005b610472611eff565b6040518082815260200191505060405180910390f35b6104b46004803603602081101561049e57600080fd5b8101908080359060200190929190505050611f05565b60405180806020018b81526020018a73ffffffffffffffffffffffffffffffffffffffff1673ffffffffffffffffffffffffffffffffffffffff1681526020018973ffffffffffffffffffffffffffffffffffffffff1673ffffffffffffffffffffffffffffffffffffffff16815260200188815260200187815260200186815260200185151515158152602001841515151581526020018315151515815260200182810382528c818151815260200191508051906020019080838360005b8381101561058e578082015181840152602081019050610573565b50505050905090810190601f1680156105bb5780820380516001836020036101000a031916815260200191505b509b50505050505050505050505060405180910390f35b6106e9600480360360c08110156105e857600080fd5b810190808035906020019064010000000081111561060557600080fd5b82018360208201111561061757600080fd5b8035906020019184600183028401116401000000008311171561063957600080fd5b91908080601f016020809104026020016040519081016040528093929190818152602001838380828437600081840152601f19601f82011690508083019250505050505050919291929080359060200190929190803573ffffffffffffffffffffffffffffffffffffffff169060200190929190803573ffffffffffffffffffffffffffffffffffffffff1690602001909291908035906020019092919080359060200190929190505050612065565b005b6106f36128cd565b604051808215151515815260200191505060405180910390f35b6107156128e0565b6040518082815260200191505060405180910390f35b6107336128e6565b6040518082815260200191505060405180910390f35b6107516128ec565b604051808215151515815260200191505060405180910390f35b6107ad6004803603602081101561078157600080fd5b81019080803573ffffffffffffffffffffffffffffffffffffffff1690602001909291905050506128ff565b005b6107db600480360360208110156107c557600080fd5b81019080803590602001909291905050506129a3565b604051808573ffffffffffffffffffffffffffffffffffffffff1673ffffffffffffffffffffffffffffffffffffffff16815260200184815260200183815260200182815260200194505050505060405180910390f35b61085e6004803603602081101561084857600080fd5b8101908080359060200190929190505050612a00565b60405180806020018b81526020018a73ffffffffffffffffffffffffffffffffffffffff1673ffffffffffffffffffffffffffffffffffffffff1681526020018973ffffffffffffffffffffffffffffffffffffffff1673ffffffffffffffffffffffffffffffffffffffff16815260200188815260200187815260200186815260200185151515158152602001841515151581526020018315151515815260200182810382528c818151815260200191508051906020019080838360005b8381101561093857808201518184015260208101905061091d565b50505050905090810190601f1680156109655780820380516001836020036101000a031916815260200191505b509b50505050505050505050505060405180910390f35b610a3f6004803603604081101561099257600080fd5b81019080803590602001906401000000008111156109af57600080fd5b8201836020820111156109c157600080fd5b803590602001918460018302840111640100000000831117156109e357600080fd5b91908080601f016020809104026020016040519081016040528093929190818152602001838380828437600081840152601f19601f82011690508083019250505050505050919291929080359060200190929190505050612b60565b005b610a49612c7e565b6040518082815260200191505060405180910390f35b610a8b60048036036020811015610a7557600080fd5b8101908080359060200190929190505050612c84565b60405180806020018981526020018873ffffffffffffffffffffffffffffffffffffffff1673ffffffffffffffffffffffffffffffffffffffff1681526020018773ffffffffffffffffffffffffffffffffffffffff1673ffffffffffffffffffffffffffffffffffffffff16815260200186815260200185815260200184815260200183815260200182810382528a818151815260200191508051906020019080838360005b83811015610b4d578082015181840152602081019050610b32565b50505050905090810190601f168015610b7a5780820380516001836020036101000a031916815260200191505b50995050505050505050505060405180910390f35b610b97612da4565b005b610ba1612f68565b6040518082815260200191505060405180910390f35b610be360048036036020811015610bcd57600080fd5b8101908080359060200190929190505050612f6e565b60405180806020018981526020018873ffffffffffffffffffffffffffffffffffffffff1673ffffffffffffffffffffffffffffffffffffffff1681526020018773ffffffffffffffffffffffffffffffffffffffff1673ffffffffffffffffffffffffffffffffffffffff16815260200186815260200185815260200184815260200183815260200182810382528a818151815260200191508051906020019080838360005b83811015610ca5578082015181840152602081019050610c8a565b50505050905090810190601f168015610cd25780820380516001836020036101000a031916815260200191505b50995050505050505050505060405180910390f35b610cef61309b565b6040518082815260200191505060405180910390f35b610d3160048036036020811015610d1b57600080fd5b81019080803590602001909291905050506130a1565b60405180806020018b81526020018a73ffffffffffffffffffffffffffffffffffffffff1673ffffffffffffffffffffffffffffffffffffffff1681526020018973ffffffffffffffffffffffffffffffffffffffff1673ffffffffffffffffffffffffffffffffffffffff16815260200188815260200187815260200186815260200185151515158152602001841515151581526020018315151515815260200182810382528c818151815260200191508051906020019080838360005b83811015610e0b578082015181840152602081019050610df0565b50505050905090810190601f168015610e385780820380516001836020036101000a031916815260200191505b509b50505050505050505050505060405180910390f35b610e9160048036036020811015610e6557600080fd5b81019080803573ffffffffffffffffffffffffffffffffffffffff1690602001909291905050506131f4565b604051808573ffffffffffffffffffffffffffffffffffffffff1673ffffffffffffffffffffffffffffffffffffffff16815260200184815260200183815260200182815260200194505050505060405180910390f35b610ef0613244565b6040518082815260200191505060405180910390f35b610f6160048036036060811015610f1c57600080fd5b81019080803573ffffffffffffffffffffffffffffffffffffffff169060200190929190803515159060200190929190803560ff16906020019092919050505061324a565b005b610f6b613459565b604051808215151515815260200191505060405180910390f35b61117660048036036101a0811015610f9c57600080fd5b8101908080359060200190640100000000811115610fb957600080fd5b820183602082011115610fcb57600080fd5b80359060200191846001830284011164010000000083111715610fed57600080fd5b91908080601f016020809104026020016040519081016040528093929190818152602001838380828437600081840152601f19601f82011690508083019250505050505050919291929080359060200190929190803573ffffffffffffffffffffffffffffffffffffffff169060200190929190803573ffffffffffffffffffffffffffffffffffffffff169060200190929190803590602001909291908035906020019092919080359060200190929190803515159060200190929190803515159060200190929190803515159060200190929190803590602001906401000000008111156110dc57600080fd5b8201836020820111156110ee57600080fd5b8035906020019184600183028401116401000000008311171561111057600080fd5b91908080601f016020809104026020016040519081016040528093929190818152602001838380828437600081840152601f19601f820116905080830192505050505050509192919290803590602001909291908035906020019092919050505061346c565b005b611180613a1e565b6040518082815260200191505060405180910390f35b6111c2600480360360208110156111ac57600080fd5b8101908080359060200190929190505050613a24565b60405180806020018b81526020018a73ffffffffffffffffffffffffffffffffffffffff1673ffffffffffffffffffffffffffffffffffffffff1681526020018973ffffffffffffffffffffffffffffffffffffffff1673ffffffffffffffffffffffffffffffffffffffff16815260200188815260200187815260200186815260200185151515158152602001841515151581526020018315151515815260200182810382528c818151815260200191508051906020019080838360005b8381101561129c578082015181840152602081019050611281565b50505050905090810190601f1680156112c95780820380516001836020036101000a031916815260200191505b509b50505050505050505050505060405180910390f35b6112e8613b77565b604051808273ffffffffffffffffffffffffffffffffffffffff1673ffffffffffffffffffffffffffffffffffffffff16815260200191505060405180910390f35b60065481565b60016009540360095402600a541461134757600080fd5b600360009054906101000a900460ff1661136057600080fd5b601360009054906101000a900460ff161561137a57600080fd5b600760003373ffffffffffffffffffffffffffffffffffffffff1673ffffffffffffffffffffffffffffffffffffffff16815260200190815260200160002060010160169054906101000a900460ff166113d357600080fd5b600f6000815480929190600101919050555060405180608001604052803373ffffffffffffffffffffffffffffffffffffffff168152602001838152602001828152602001600654815250600e60003373ffffffffffffffffffffffffffffffffffffffff1673ffffffffffffffffffffffffffffffffffffffff16815260200190815260200160002060008201518160000160006101000a81548173ffffffffffffffffffffffffffffffffffffffff021916908373ffffffffffffffffffffffffffffffffffffffff160217905550602082015181600101556040820151816002015560608201518160030155905050601060405180608001604052803373ffffffffffffffffffffffffffffffffffffffff1681526020018481526020018381526020016006548152509080600181540180825580915050906001820390600052602060002090600402016000909192909190915060008201518160000160006101000a81548173ffffffffffffffffffffffffffffffffffffffff021916908373ffffffffffffffffffffffffffffffffffffffff16021790555060208201518160010155604082015181600201556060820151816003015550505081601154016011819055508060125401601281905550600954600f5414156115be576115bd613ba3565b5b5050565b601360009054906101000a900460ff16156115e0576115df613c14565b5b600360009054906101000a900460ff166115f957600080fd5b601360009054906101000a900460ff161561161357600080fd5b600760008573ffffffffffffffffffffffffffffffffffffffff1673ffffffffffffffffffffffffffffffffffffffff16815260200190815260200160002060010160169054906101000a900460ff1661166c57600080fd5b600760008473ffffffffffffffffffffffffffffffffffffffff1673ffffffffffffffffffffffffffffffffffffffff16815260200190815260200160002060010160169054906101000a900460ff166116c557600080fd5b8373ffffffffffffffffffffffffffffffffffffffff163373ffffffffffffffffffffffffffffffffffffffff16146116fd57600080fd5b8273ffffffffffffffffffffffffffffffffffffffff163373ffffffffffffffffffffffffffffffffffffffff16141561173657600080fd5b600554851461174457600080fd5b856040516020018082805190602001908083835b6020831061177b5780518252602082019150602081019050602083039250611758565b6001836020036101000a03801982511681845116808217855250505050505090500191505060405160208183030381529060405280519060200120600460405160200180828054600181600116156101000203166002900480156118165780601f106117f4576101008083540402835291820191611816565b820191906000526020600020905b815481529060010190602001808311611802575b5050915050604051602081830303815290604052805190602001201461183b57600080fd5b6000600a541415611859576006600081548092919060010191905055505b600760008473ffffffffffffffffffffffffffffffffffffffff1673ffffffffffffffffffffffffffffffffffffffff16815260200190815260200160002060000154600a600760008773ffffffffffffffffffffffffffffffffffffffff1673ffffffffffffffffffffffffffffffffffffffff168152602001908152602001600020600001540201600b81905550600c60405180610100016040528060048054600181600116156101000203166002900480601f01602080910402602001604051908101604052809291908181526020018280546001816001161561010002031660029004801561198d5780601f106119625761010080835404028352916020019161198d565b820191906000526020600020905b81548152906001019060200180831161197057829003601f168201915b505050505081526020018781526020018673ffffffffffffffffffffffffffffffffffffffff1681526020018573ffffffffffffffffffffffffffffffffffffffff1681526020018481526020018381526020016006548152602001600b54815250908060018154018082558091505090600182039060005260206000209060080201600090919290919091506000820151816000019080519060200190611a36929190613c88565b506020820151816001015560408201518160020160006101000a81548173ffffffffffffffffffffffffffffffffffffffff021916908373ffffffffffffffffffffffffffffffffffffffff16021790555060608201518160030160006101000a81548173ffffffffffffffffffffffffffffffffffffffff021916908373ffffffffffffffffffffffffffffffffffffffff1602179055506080820151816004015560a0820151816005015560c0820151816006015560e0820151816007015550505060405180610100016040528060048054600181600116156101000203166002900480601f016020809104026020016040519081016040528092919081815260200182805460018160011615610100020316600290048015611b9c5780601f10611b7157610100808354040283529160200191611b9c565b820191906000526020600020905b815481529060010190602001808311611b7f57829003601f168201915b505050505081526020018681526020018573ffffffffffffffffffffffffffffffffffffffff1681526020018473ffffffffffffffffffffffffffffffffffffffff1681526020018381526020018281526020016006548152602001600b54815250600d6000600b5481526020019081526020016000206000820151816000019080519060200190611c2f929190613c88565b506020820151816001015560408201518160020160006101000a81548173ffffffffffffffffffffffffffffffffffffffff021916908373ffffffffffffffffffffffffffffffffffffffff16021790555060608201518160030160006101000a81548173ffffffffffffffffffffffffffffffffffffffff021916908373ffffffffffffffffffffffffffffffffffffffff1602179055506080820151816004015560a0820151816005015560c0820151816006015560e08201518160070155905050600a60008154809291906001019190505550505050505050565b60015481565b60076020528060005260406000206000915090508060000154908060010160009054906101000a900473ffffffffffffffffffffffffffffffffffffffff16908060010160149054906101000a900460ff16908060010160159054906101000a900460ff16908060010160169054906101000a900460ff16908060020154905086565b600a5481565b3373ffffffffffffffffffffffffffffffffffffffff16600760003373ffffffffffffffffffffffffffffffffffffffff1673ffffffffffffffffffffffffffffffffffffffff16815260200190815260200160002060010160009054906101000a900473ffffffffffffffffffffffffffffffffffffffff1673ffffffffffffffffffffffffffffffffffffffff1614611e3657600080fd5b600760003373ffffffffffffffffffffffffffffffffffffffff1673ffffffffffffffffffffffffffffffffffffffff16815260200190815260200160002060010160169054906101000a900460ff16611e8f57600080fd5b600960008154809291906001900391905055506000600760003373ffffffffffffffffffffffffffffffffffffffff1673ffffffffffffffffffffffffffffffffffffffff16815260200190815260200160002060010160166101000a81548160ff021916908315150217905550565b601a5481565b60148181548110611f1257fe5b9060005260206000209060080201600091509050806000018054600181600116156101000203166002900480601f016020809104026020016040519081016040528092919081815260200182805460018160011615610100020316600290048015611fbe5780601f10611f9357610100808354040283529160200191611fbe565b820191906000526020600020905b815481529060010190602001808311611fa157829003601f168201915b5050505050908060010154908060020160009054906101000a900473ffffffffffffffffffffffffffffffffffffffff16908060030160009054906101000a900473ffffffffffffffffffffffffffffffffffffffff16908060040154908060050154908060060154908060070160009054906101000a900460ff16908060070160019054906101000a900460ff16908060070160029054906101000a900460ff1690508a565b8373ffffffffffffffffffffffffffffffffffffffff163373ffffffffffffffffffffffffffffffffffffffff161461209d57600080fd5b8273ffffffffffffffffffffffffffffffffffffffff163373ffffffffffffffffffffffffffffffffffffffff1614156120d657600080fd5b600760003373ffffffffffffffffffffffffffffffffffffffff1673ffffffffffffffffffffffffffffffffffffffff16815260200190815260200160002060010160169054906101000a900460ff1661212f57600080fd5b600760008473ffffffffffffffffffffffffffffffffffffffff1673ffffffffffffffffffffffffffffffffffffffff16815260200190815260200160002060010160169054906101000a900460ff1661218857600080fd5b600554851461219657600080fd5b81600012156121a457600080fd5b856040516020018082805190602001908083835b602083106121db57805182526020820191506020810190506020830392506121b8565b6001836020036101000a03801982511681845116808217855250505050505090500191505060405160208183030381529060405280519060200120600460405160200180828054600181600116156101000203166002900480156122765780601f10612254576101008083540402835291820191612276565b820191906000526020600020905b815481529060010190602001808311612262575b5050915050604051602081830303815290604052805190602001201461229b57600080fd5b600760008473ffffffffffffffffffffffffffffffffffffffff1673ffffffffffffffffffffffffffffffffffffffff16815260200190815260200160002060000154600a600760008773ffffffffffffffffffffffffffffffffffffffff1673ffffffffffffffffffffffffffffffffffffffff168152602001908152602001600020600001540201601781905550601460405180610140016040528060048054600181600116156101000203166002900480601f0160208091040260200160405190810160405280929190818152602001828054600181600116156101000203166002900480156123cf5780601f106123a4576101008083540402835291602001916123cf565b820191906000526020600020905b8154815290600101906020018083116123b257829003601f168201915b505050505081526020018781526020018673ffffffffffffffffffffffffffffffffffffffff1681526020018573ffffffffffffffffffffffffffffffffffffffff1681526020018481526020018381526020016017548152602001600115158152602001600015158152602001601360019054906101000a900460ff161515815250908060018154018082558091505090600182039060005260206000209060080201600090919290919091506000820151816000019080519060200190612499929190613c88565b506020820151816001015560408201518160020160006101000a81548173ffffffffffffffffffffffffffffffffffffffff021916908373ffffffffffffffffffffffffffffffffffffffff16021790555060608201518160030160006101000a81548173ffffffffffffffffffffffffffffffffffffffff021916908373ffffffffffffffffffffffffffffffffffffffff1602179055506080820151816004015560a0820151816005015560c0820151816006015560e08201518160070160006101000a81548160ff0219169083151502179055506101008201518160070160016101000a81548160ff0219169083151502179055506101208201518160070160026101000a81548160ff02191690831515021790555050505060405180610140016040528060048054600181600116156101000203166002900480601f0160208091040260200160405190810160405280929190818152602001828054600181600116156101000203166002900480156126575780601f1061262c57610100808354040283529160200191612657565b820191906000526020600020905b81548152906001019060200180831161263a57829003601f168201915b505050505081526020018681526020018573ffffffffffffffffffffffffffffffffffffffff1681526020018473ffffffffffffffffffffffffffffffffffffffff1681526020018381526020018281526020016017548152602001600115158152602001600015158152602001601360019054906101000a900460ff161515815250601660006017548152602001908152602001600020600082015181600001908051906020019061270b929190613c88565b506020820151816001015560408201518160020160006101000a81548173ffffffffffffffffffffffffffffffffffffffff021916908373ffffffffffffffffffffffffffffffffffffffff16021790555060608201518160030160006101000a81548173ffffffffffffffffffffffffffffffffffffffff021916908373ffffffffffffffffffffffffffffffffffffffff1602179055506080820151816004015560a0820151816005015560c0820151816006015560e08201518160070160006101000a81548160ff0219169083151502179055506101008201518160070160016101000a81548160ff0219169083151502179055506101208201518160070160026101000a81548160ff0219169083151502179055509050506001600760008573ffffffffffffffffffffffffffffffffffffffff1673ffffffffffffffffffffffffffffffffffffffff1681526020019081526020016000206002015401600760008573ffffffffffffffffffffffffffffffffffffffff1673ffffffffffffffffffffffffffffffffffffffff16815260200190815260200160002060020181905550601560008154809291906001019190505550505050505050565b601360009054906101000a900460ff1681565b60155481565b600f5481565b601360019054906101000a900460ff1681565b600260000160009054906101000a900473ffffffffffffffffffffffffffffffffffffffff1673ffffffffffffffffffffffffffffffffffffffff163373ffffffffffffffffffffffffffffffffffffffff161461295c57600080fd5b80600260000160006101000a81548173ffffffffffffffffffffffffffffffffffffffff021916908373ffffffffffffffffffffffffffffffffffffffff16021790555050565b601081815481106129b057fe5b90600052602060002090600402016000915090508060000160009054906101000a900473ffffffffffffffffffffffffffffffffffffffff16908060010154908060020154908060030154905084565b60198181548110612a0d57fe5b9060005260206000209060080201600091509050806000018054600181600116156101000203166002900480601f016020809104026020016040519081016040528092919081815260200182805460018160011615610100020316600290048015612ab95780601f10612a8e57610100808354040283529160200191612ab9565b820191906000526020600020905b815481529060010190602001808311612a9c57829003601f168201915b5050505050908060010154908060020160009054906101000a900473ffffffffffffffffffffffffffffffffffffffff16908060030160009054906101000a900473ffffffffffffffffffffffffffffffffffffffff16908060040154908060050154908060060154908060070160009054906101000a900460ff16908060070160019054906101000a900460ff16908060070160029054906101000a900460ff1690508a565b600260000160009054906101000a900473ffffffffffffffffffffffffffffffffffffffff1673ffffffffffffffffffffffffffffffffffffffff163373ffffffffffffffffffffffffffffffffffffffff1614612bbd57600080fd5b6001600360006101000a81548160ff0219169083151502179055508160049080519060200190612bee929190613d08565b508060058190555060006006819055506000600a8190555060146000612c149190613d88565b6000600f819055506000601360006101000a81548160ff0219169083151502179055506000600981905550600060118190555060006012819055506000601360016101000a81548160ff02191690831515021790555060006015819055506000601a819055505050565b60125481565b600d602052806000526040600020600091509050806000018054600181600116156101000203166002900480601f016020809104026020016040519081016040528092919081815260200182805460018160011615610100020316600290048015612d305780601f10612d0557610100808354040283529160200191612d30565b820191906000526020600020905b815481529060010190602001808311612d1357829003601f168201915b5050505050908060010154908060020160009054906101000a900473ffffffffffffffffffffffffffffffffffffffff16908060030160009054906101000a900473ffffffffffffffffffffffffffffffffffffffff16908060040154908060050154908060060154908060070154905088565b3373ffffffffffffffffffffffffffffffffffffffff16600760003373ffffffffffffffffffffffffffffffffffffffff1673ffffffffffffffffffffffffffffffffffffffff16815260200190815260200160002060010160009054906101000a900473ffffffffffffffffffffffffffffffffffffffff1673ffffffffffffffffffffffffffffffffffffffff1614612e3e57600080fd5b600360009054906101000a900460ff16612e5757600080fd5b600760003373ffffffffffffffffffffffffffffffffffffffff1673ffffffffffffffffffffffffffffffffffffffff16815260200190815260200160002060010160169054906101000a900460ff1615612eb157600080fd5b6009600081548092919060010191905055506001600760003373ffffffffffffffffffffffffffffffffffffffff1673ffffffffffffffffffffffffffffffffffffffff16815260200190815260200160002060010160166101000a81548160ff0219169083151502179055506000600760003373ffffffffffffffffffffffffffffffffffffffff1673ffffffffffffffffffffffffffffffffffffffff16815260200190815260200160002060020181905550565b60085481565b600c8181548110612f7b57fe5b9060005260206000209060080201600091509050806000018054600181600116156101000203166002900480601f0160208091040260200160405190810160405280929190818152602001828054600181600116156101000203166002900480156130275780601f10612ffc57610100808354040283529160200191613027565b820191906000526020600020905b81548152906001019060200180831161300a57829003601f168201915b5050505050908060010154908060020160009054906101000a900473ffffffffffffffffffffffffffffffffffffffff16908060030160009054906101000a900473ffffffffffffffffffffffffffffffffffffffff16908060040154908060050154908060060154908060070154905088565b60095481565b6016602052806000526040600020600091509050806000018054600181600116156101000203166002900480601f01602080910402602001604051908101604052809291908181526020018280546001816001161561010002031660029004801561314d5780601f106131225761010080835404028352916020019161314d565b820191906000526020600020905b81548152906001019060200180831161313057829003601f168201915b5050505050908060010154908060020160009054906101000a900473ffffffffffffffffffffffffffffffffffffffff16908060030160009054906101000a900473ffffffffffffffffffffffffffffffffffffffff16908060040154908060050154908060060154908060070160009054906101000a900460ff16908060070160019054906101000a900460ff16908060070160029054906101000a900460ff1690508a565b600e6020528060005260406000206000915090508060000160009054906101000a900473ffffffffffffffffffffffffffffffffffffffff16908060010154908060020154908060030154905084565b60115481565b600260000160009054906101000a900473ffffffffffffffffffffffffffffffffffffffff1673ffffffffffffffffffffffffffffffffffffffff163373ffffffffffffffffffffffffffffffffffffffff16146132a757600080fd5b6000600760008573ffffffffffffffffffffffffffffffffffffffff1673ffffffffffffffffffffffffffffffffffffffff16815260200190815260200160002060000154146132f657600080fd5b6008600081548092919060010191905055506040518060c0016040528060085481526020018473ffffffffffffffffffffffffffffffffffffffff16815260200183151581526020018260ff1681526020016000151581526020016000815250600760008573ffffffffffffffffffffffffffffffffffffffff1673ffffffffffffffffffffffffffffffffffffffff1681526020019081526020016000206000820151816000015560208201518160010160006101000a81548173ffffffffffffffffffffffffffffffffffffffff021916908373ffffffffffffffffffffffffffffffffffffffff16021790555060408201518160010160146101000a81548160ff02191690831515021790555060608201518160010160156101000a81548160ff021916908360ff16021790555060808201518160010160166101000a81548160ff02191690831515021790555060a08201518160020155905050505050565b600360009054906101000a900460ff1681565b8973ffffffffffffffffffffffffffffffffffffffff163373ffffffffffffffffffffffffffffffffffffffff16146134a457600080fd5b8a73ffffffffffffffffffffffffffffffffffffffff166016600083815260200190815260200160002060020160009054906101000a900473ffffffffffffffffffffffffffffffffffffffff1673ffffffffffffffffffffffffffffffffffffffff161461351257600080fd5b8860166000838152602001908152602001600020600401541461353457600080fd5b8760166000838152602001908152602001600020600501541461355657600080fd5b826040516020018082805190602001908083835b6020831061358d578051825260208201915060208101905060208303925061356a565b6001836020036101000a038019825116818451168082178552505050505050905001915050604051602081830303815290604052805190602001208d6040516020018082805190602001908083835b602083106135ff57805182526020820191506020810190506020830392506135dc565b6001836020036101000a038019825116818451168082178552505050505050905001915050604051602081830303815290604052805190602001201461364457600080fd5b8b821461365057600080fd5b841561365b57600080fd5b6040518061014001604052808e81526020018d81526020018c73ffffffffffffffffffffffffffffffffffffffff1681526020018b73ffffffffffffffffffffffffffffffffffffffff1681526020018a81526020018981526020018881526020018715158152602001600115158152602001851515815250601860008981526020019081526020016000206000820151816000019080519060200190613703929190613c88565b506020820151816001015560408201518160020160006101000a81548173ffffffffffffffffffffffffffffffffffffffff021916908373ffffffffffffffffffffffffffffffffffffffff16021790555060608201518160030160006101000a81548173ffffffffffffffffffffffffffffffffffffffff021916908373ffffffffffffffffffffffffffffffffffffffff1602179055506080820151816004015560a0820151816005015560c0820151816006015560e08201518160070160006101000a81548160ff0219169083151502179055506101008201518160070160016101000a81548160ff0219169083151502179055506101208201518160070160026101000a81548160ff02191690831515021790555090505060196040518061014001604052808f81526020018e81526020018d73ffffffffffffffffffffffffffffffffffffffff1681526020018c73ffffffffffffffffffffffffffffffffffffffff1681526020018b81526020018a815260200189815260200188151581526020016001151581526020018615158152509080600181540180825580915050906001820390600052602060002090600802016000909192909190915060008201518160000190805190602001906138e1929190613c88565b506020820151816001015560408201518160020160006101000a81548173ffffffffffffffffffffffffffffffffffffffff021916908373ffffffffffffffffffffffffffffffffffffffff16021790555060608201518160030160006101000a81548173ffffffffffffffffffffffffffffffffffffffff021916908373ffffffffffffffffffffffffffffffffffffffff1602179055506080820151816004015560a0820151816005015560c0820151816006015560e08201518160070160006101000a81548160ff0219169083151502179055506101008201518160070160016101000a81548160ff0219169083151502179055506101208201518160070160026101000a81548160ff021916908315150217905550505050601a6000815480929190600101919050555050505050505050505050505050565b60005481565b6018602052806000526040600020600091509050806000018054600181600116156101000203166002900480601f016020809104026020016040519081016040528092919081815260200182805460018160011615610100020316600290048015613ad05780601f10613aa557610100808354040283529160200191613ad0565b820191906000526020600020905b815481529060010190602001808311613ab357829003601f168201915b5050505050908060010154908060020160009054906101000a900473ffffffffffffffffffffffffffffffffffffffff16908060030160009054906101000a900473ffffffffffffffffffffffffffffffffffffffff16908060040154908060050154908060060154908060070160009054906101000a900460ff16908060070160019054906101000a900460ff16908060070160029054906101000a900460ff1690508a565b60028060000160009054906101000a900473ffffffffffffffffffffffffffffffffffffffff16905081565b6001601360006101000a81548160ff02191690831515021790555060005460115413158015613bd6575060015460125413155b15613c12576001601360016101000a81548160ff0219169083151502179055506000600360006101000a81548160ff0219169083151502179055505b565b6000600a8190555060146000613c2a9190613d88565b60106000613c389190613dac565b6000600f819055506000601360006101000a81548160ff021916908315150217905550600060118190555060006012819055506000601360016101000a81548160ff021916908315150217905550565b828054600181600116156101000203166002900490600052602060002090601f016020900481019282601f10613cc957805160ff1916838001178555613cf7565b82800160010185558215613cf7579182015b82811115613cf6578251825591602001919060010190613cdb565b5b509050613d049190613dd0565b5090565b828054600181600116156101000203166002900490600052602060002090601f016020900481019282601f10613d4957805160ff1916838001178555613d77565b82800160010185558215613d77579182015b82811115613d76578251825591602001919060010190613d5b565b5b509050613d849190613dd0565b5090565b5080546000825560080290600052602060002090810190613da99190613df5565b50565b5080546000825560040290600052602060002090810190613dcd9190613ece565b50565b613df291905b80821115613dee576000816000905550600101613dd6565b5090565b90565b613ecb91905b80821115613ec75760008082016000613e149190613f2c565b60018201600090556002820160006101000a81549073ffffffffffffffffffffffffffffffffffffffff02191690556003820160006101000a81549073ffffffffffffffffffffffffffffffffffffffff02191690556004820160009055600582016000905560068201600090556007820160006101000a81549060ff02191690556007820160016101000a81549060ff02191690556007820160026101000a81549060ff021916905550600801613dfb565b5090565b90565b613f2991905b80821115613f2557600080820160006101000a81549073ffffffffffffffffffffffffffffffffffffffff021916905560018201600090556002820160009055600382016000905550600401613ed4565b5090565b90565b50805460018160011615610100020316600290046000825580601f10613f525750613f71565b601f016020900490600052602060002090810190613f709190613dd0565b5b5056fea265627a7a72315820ec557188b4a21f6eb13160498a8b1edaf3f549caf0de306b3dc84a249c62f73e64736f6c63430005100032",
  "source": "pragma solidity ^0.5.16;\r\n\r\ncontract Energy {\r\n    //public state variables are accessible by everyone who invokes contract on the network \r\n    //this contract assumes that every member of the blockchain is a member of the microgrid i.e. is able to participate in trades\r\n    //add a deletePeers() function\r\n        \r\n    //set these tolerances in constructor\r\n    int public pri_tol;\r\n    int public dual_tol;\r\n    //constructor: lists registered peers and admin account\r\n    //change for each ganache instance\r\n     constructor () public {\r\n        //set admin user - needed for testing\r\n        admin = Admin(0x9dd4CA3EfD1f01f7E043A049B3E8FddD924085Eb);\r\n        pri_tol = 7;\r\n        dual_tol =7;\r\n        peersCount = 0;\r\n        //adding peers for testing\r\n        //addPeer(0x28533267708123eB23D50c34a49ed7eB0D0c06a5, true, 1);\r\n        //addPeer(0xAedA4d57bf6be1e2d68D08f0E6D471E0fB27f4A7, true, 1);\r\n        //addPeer(0x8DcD9E1535de39A4Df47243e982e2c8098Ad1566, true, 1, true);\r\n        //addPeer(0x0263E592ca8C92a041a49C93424AC45850b928aa, true, 1, true);\r\n        //addPeer(0x31D5154d76B65338f05099Fd32F55cBD722BdcB9, true, 1, true);\r\n\r\n        //need to include these function calls for testing\r\n        //addLocalRes (0x28533267708123eB23D50c34a49ed7eB0D0c06a5, 11);\r\n        //addLocalRes (0xAedA4d57bf6be1e2d68D08f0E6D471E0fB27f4A7, -12);\r\n\r\n    }\r\n\r\n    // Model a Peer\r\n    struct Peer {\r\n        int id;\r\n        address account;\r\n        bool prosumer;\r\n        uint8 building; //0 for commercial and 1 for residential\r\n        bool isPeerActive; //is peer participating in trading for this time period\r\n        uint num_trades_pending; //number of trades for this time period pending this peer's approval\r\n    }\r\n\r\n    //create an admin struct variable\r\n    //admin address/es can add peers and are responsible for initiating the trading period \r\n    struct Admin {\r\n        address admin_account;\r\n    }\r\n\r\n    Admin public admin;\r\n    //is trading period intiated? i.e. can trading iterations begin\r\n    bool public init;\r\n    //keep track of date and time set by admin- verifies that peers know they are trading at the correct date and time\r\n    string date;\r\n    uint time_per;\r\n    //keep public track of iteration for this time-period\r\n    uint public iteration;\r\n\r\n    //allows admin to set new admin account\r\n    function setAdmin(address new_admin) public {\r\n\r\n        require(msg.sender == admin.admin_account);\r\n        admin.admin_account = new_admin;\r\n    }\r\n\r\n\r\n    //add peer's address to list of peers that are connected in the microgrid- only admin can do this\r\n    function addPeer(address acc, bool role, uint8 build) public{\r\n        require(msg.sender == admin.admin_account);\r\n        require(peers[acc].id == int(0x0));\r\n        peersCount ++;\r\n        peers[acc] = Peer(peersCount, acc, role, build, false, 0);\r\n        \r\n    }\r\n\r\n\r\n    // Store Peers using their addresses\r\n    // Fetch Peers\r\n    mapping(address => Peer) public peers;\r\n    //map peers to an integer id\r\n    //mapping(int => Peer) public peersID;\r\n    // Store Peers Count\r\n    int public peersCount;\r\n\r\n    function startTradingPer(string memory date_set, uint time_period) public {\r\n            require(msg.sender == admin.admin_account);\r\n            init = true;\r\n            date = date_set;\r\n            time_per = time_period;\r\n            iteration = 0;\r\n            tradeCountIter = 0;\r\n            //delete trade_bids;\r\n            delete trades_pending;\r\n            //delete localres_list;\r\n            localresCounter =0;\r\n            iteration_complete = false;\r\n            peersTrading =0;\r\n            global_pres = 0;\r\n            global_dres = 0;\r\n            is_optimal = false;\r\n            trade_penCount = 0;\r\n            numApprovedTrades =0;\r\n            //delete approved;\r\n\r\n    }\r\n\r\n    //Store how many peers have registered to trade in time period\r\n    uint public peersTrading;\r\n    \r\n    //peer is registering to trade in time period\r\n    function registerPeer() public {\r\n        //peer needs to have been added by admin\r\n        require(peers[msg.sender].account == msg.sender);\r\n        //admin needs to have initiated trading period\r\n        require(init);\r\n        require(!peers[msg.sender].isPeerActive);\r\n        peersTrading ++;\r\n        peers[msg.sender].isPeerActive = true;\r\n        peers[msg.sender].num_trades_pending = 0;\r\n    }\r\n    \r\n    \r\n    //keep track of number of how trade bids have been submitted for this iteration\r\n    //set to 5 for testing\r\n    uint public tradeCountIter;\r\n\r\n     //NB: will need to split up kwh into decimals as well\r\n    struct Trade_bid {\r\n        string date;\r\n        uint time_period;\r\n        address from;\r\n        address to;\r\n        int kwh; //need to decide on scaling factor\r\n        uint price; //given in cents\r\n        uint iteration;\r\n        int id;\r\n    }\r\n    \r\n    int id_set;\r\n\r\n    // list of trade_bids for current iteration for current time_period\r\n    Trade_bid [] public trade_bids; \r\n\r\n    //create mapping of trade_bids to trade ids\r\n    mapping(int => Trade_bid) public trade_bids_mapping;\r\n\r\n    //add trade bid to list of trade bids for this iteration- assumes peer won't submit duplicate trade bids \r\n    function addTradeBid (string memory date_peer, uint time_period, address s, address buy, int amount, uint price_c) public {\r\n        //if previous iteration was completed\r\n        if (iteration_complete){newIteration();}\r\n        //check that trading period is initiated\r\n        require(init);\r\n        require(!iteration_complete);\r\n        //check if sender address is members of the microgrid\r\n        require(peers[s].isPeerActive);\r\n        //check if buyer address is member of the microgrid\r\n        require(peers[buy].isPeerActive);\r\n        //requires that the person adding the trade bid is the account set as the sender\r\n        require(msg.sender == s);\r\n        //requires that the sender is not also the buyer\r\n        require(msg.sender != buy);\r\n        //requires peer to insert correct time_period\r\n        require(time_period==time_per);\r\n        //requires peer to insert correct date\r\n        require(keccak256(abi.encodePacked(date)) == keccak256(abi.encodePacked(date_peer)));\r\n        if (tradeCountIter ==0){iteration++;}\r\n        //set the id\r\n        id_set = (peers[s].id * 10)+ (peers[buy].id);\r\n        trade_bids.push(Trade_bid(date, time_period, s, buy, amount, price_c, iteration, id_set));\r\n        trade_bids_mapping[id_set] = Trade_bid(date, time_period, s, buy, amount, price_c, iteration, id_set);\r\n        tradeCountIter++;\r\n        \r\n    }\r\n    //NB: will need to decide by what magnitude of 10 we will be multiplying actual residual value in order\r\n    // to store it in this mapping\r\n\r\n    function newIteration() private {\r\n\r\n        tradeCountIter = 0;\r\n        delete trades_pending;\r\n        delete localres_list;\r\n        localresCounter =0;\r\n        iteration_complete = false;\r\n        global_pres = 0;\r\n        global_dres = 0;\r\n        is_optimal = false;\r\n\r\n    }\r\n    struct localRes{\r\n\r\n        address from;\r\n        int primal_res;\r\n        int dual_res;\r\n        uint iteration;\r\n\r\n    }\r\n    \r\n    //maps addresses to local residuals for addresses \r\n    mapping (address => localRes) public localres;\r\n\r\n    //keep track of how many peers have submitted local residuals for this iteration \r\n    uint public localresCounter; \r\n\r\n    //store the submitted local residuals for this iteration\r\n    localRes [] public localres_list; \r\n\r\n    //global residuals = running sum of local residuals.  Make these private after testing?\r\n    int public global_pres;\r\n    int public global_dres;\r\n\r\n\r\n    //is iteration complete? i.e. have all local residuals for this iteration been submitted\r\n    bool public iteration_complete;\r\n    bool public is_optimal;\r\n\r\n    //add trade bid to list of trade bids for this iteration- assumes that each peer will not submit more than one local res per iteration\r\n    function addLocalRes (int p_res, int d_res) public {\r\n        //all trade bids need to be submitted for local residuals to be submitted\r\n        require(tradeCountIter == ((peersTrading)*(peersTrading-1)));\r\n        require(init);\r\n        require(!iteration_complete);\r\n        //requires that person submitting local residual to blockchain is a member of the microgrid\r\n        require(peers[msg.sender].isPeerActive);\r\n        localresCounter++;\r\n        localres[msg.sender] = localRes(msg.sender, p_res, d_res, iteration);\r\n        //add localres to localres_list if people want to see local residuals currently sent to smart contract for this iteration\r\n        localres_list.push(localRes(msg.sender, p_res, d_res, iteration));\r\n        global_pres = global_pres + p_res;\r\n        global_dres = global_dres + d_res;\r\n        if (localresCounter == peersTrading){checkOptimal();}\r\n\r\n    }\r\n\r\n    function checkOptimal() private {\r\n            iteration_complete=true;\r\n            if ((global_pres<= pri_tol) && (global_dres<=dual_tol)){\r\n                \r\n                is_optimal = true;\r\n                //end iteration cycle for this trading period\r\n                init = false;\r\n                \r\n                \r\n                }\r\n\r\n    }\r\n\r\n\r\n    //only person SENDING money can create a Trade struct- by using their private key to sign this transaction, approves the transfer of money.  Almost like end of bidding process.\r\n    struct Trade {\r\n        \r\n        string date;\r\n        uint time_period;\r\n        address from;\r\n        address to; \r\n        int kwh;\r\n        uint price_c;\r\n        int id; //make an id for trade using buyer and seller\r\n        bool approve_from;\r\n        bool approve_to;\r\n        bool optimal;\r\n\r\n    }\r\n\r\n   \r\n   //store pending trades for this time period.  Pending trades are trades that have been created by sender but are pending approval from recipient in order to be binding.\r\n    Trade [] public trades_pending;\r\n    uint public trade_penCount;\r\n    mapping (int => Trade) public trades_pending_mapping;\r\n\r\n    int private trade_id;\r\n    //create counter for trades\r\n    //check if tradeCounterIter is correct and that localresCounter == peersCount for trade bid to be made\r\n    function createTrade(string memory date_peer, uint time_period, address from, address to, int amount, uint price) public {\r\n        require(msg.sender == from);\r\n        require(msg.sender!=to);\r\n        require(peers[msg.sender].isPeerActive);\r\n        require(peers[to].isPeerActive);\r\n        require(time_period==time_per);\r\n        require(0>=amount);\r\n        //requires peer to insert correct date\r\n        require(keccak256(abi.encodePacked(date)) == keccak256(abi.encodePacked(date_peer)));\r\n        //make array of created trades for that time period\r\n        trade_id = (peers[from].id) * 10 + peers[to].id;\r\n        //if ((trade_bids_mapping[trade_id].kwh == amount) && (trade_bids_mapping[trade_id].price==price)){\r\n        trades_pending.push(Trade(date, time_period, from, to, amount, price, trade_id, true, false, is_optimal));\r\n        trades_pending_mapping[trade_id] = Trade(date, time_period, from, to, amount, price, trade_id, true, false, is_optimal);\r\n        peers[to].num_trades_pending = peers[to].num_trades_pending + 1;\r\n        trade_penCount ++;\r\n        //}\r\n        \r\n        //else {\r\n\r\n          //  trades_pending.push(Trade(date, time_period, from, to, amount, price, trade_id, true, false, false));\r\n           // trade_penCount ++;\r\n        //}\r\n\r\n    }\r\n\r\n\r\n\r\n    //create mapping for id to approved trades between those added peers for this time period\r\n    mapping (int => Trade) public approved_trades; //do I need this mapping?\r\n    Trade [] public approved; \r\n\r\n    //running counter of how many trades have been approved for this time period\r\n    uint public numApprovedTrades;\r\n\r\n    function approveTrade(string memory trade_date, uint trade_time, address trade_from, address trade_to, int trade_kwh, uint trade_price_c, int id, bool trade_approve_from, bool trade_approve_to, bool trade_optimal, string memory date_approved, uint time_approved, int trades_pending_ind) public {\r\n            \r\n            require(msg.sender == trade_to);\r\n            //trade must be listed have been created correctly\r\n            require(trades_pending_mapping[trades_pending_ind].from == trade_from);\r\n            require(trades_pending_mapping[trades_pending_ind].kwh == trade_kwh);\r\n            require(trades_pending_mapping[trades_pending_ind].price_c == trade_price_c);\r\n            require(keccak256(abi.encodePacked(trade_date)) == keccak256(abi.encodePacked(date_approved)));\r\n            require(time_approved==trade_time);\r\n            require(!trade_approve_to);\r\n            approved_trades[id]  = Trade(trade_date, trade_time, trade_from, trade_to, trade_kwh, trade_price_c, id, trade_approve_from, true, trade_optimal);\r\n            approved.push(Trade(trade_date, trade_time, trade_from, trade_to, trade_kwh, trade_price_c, id, trade_approve_from, true, trade_optimal));\r\n            numApprovedTrades++;\r\n\r\n\r\n    \r\n    }\r\n\r\n    //peers need to call this to indicate that they have completed their trading for this time period\r\n    function deregisterPeer() public {\r\n        //peer needs to have been added by admin\r\n        require(peers[msg.sender].account == msg.sender);\r\n        //admin needs to have initiated trading period\r\n        require(peers[msg.sender].isPeerActive);\r\n        peersTrading --;\r\n        peers[msg.sender].isPeerActive = false;\r\n    }\r\n    \r\n}\r\n\r\n",
  "sourcePath": "C:/Users/Inessa/Desktop/4th_Year/FYP/Methodology_Eth/energy/contracts/Energy.sol",
  "compiler": {
    "name": "solc",
    "version": "0.5.16+commit.9c3226ce.Emscripten.clang"
  },
  "schemaVersion": "3.3.0",
  "updatedAt": "2020-10-24T00:02:09.870Z",
  "networkType": "ethereum",
  "devdoc": {
    "methods": {}
  },
  "userdoc": {
    "methods": {}
  }
}