{
  "contractName": "Energy",
  "abi": [
    {
      "inputs": [],
      "payable": false,
      "stateMutability": "nonpayable",
      "type": "constructor"
    },
    {
      "constant": true,
      "inputs": [],
      "name": "date",
      "outputs": [
        {
          "internalType": "string",
          "name": "",
          "type": "string"
        }
      ],
      "payable": false,
      "stateMutability": "view",
      "type": "function"
    },
    {
      "constant": true,
      "inputs": [],
      "name": "iteration",
      "outputs": [
        {
          "internalType": "uint256",
          "name": "",
          "type": "uint256"
        }
      ],
      "payable": false,
      "stateMutability": "view",
      "type": "function"
    },
    {
      "constant": true,
      "inputs": [
        {
          "internalType": "address",
          "name": "",
          "type": "address"
        }
      ],
      "name": "localres",
      "outputs": [
        {
          "internalType": "uint256",
          "name": "",
          "type": "uint256"
        }
      ],
      "payable": false,
      "stateMutability": "view",
      "type": "function"
    },
    {
      "constant": true,
      "inputs": [],
      "name": "localresCounter",
      "outputs": [
        {
          "internalType": "uint256",
          "name": "",
          "type": "uint256"
        }
      ],
      "payable": false,
      "stateMutability": "view",
      "type": "function"
    },
    {
      "constant": true,
      "inputs": [
        {
          "internalType": "address",
          "name": "",
          "type": "address"
        }
      ],
      "name": "peers",
      "outputs": [
        {
          "internalType": "uint256",
          "name": "id",
          "type": "uint256"
        },
        {
          "internalType": "address",
          "name": "account",
          "type": "address"
        },
        {
          "internalType": "bool",
          "name": "prosumer",
          "type": "bool"
        },
        {
          "internalType": "uint8",
          "name": "building",
          "type": "uint8"
        },
        {
          "internalType": "bool",
          "name": "isPeer",
          "type": "bool"
        }
      ],
      "payable": false,
      "stateMutability": "view",
      "type": "function"
    },
    {
      "constant": true,
      "inputs": [],
      "name": "peersCount",
      "outputs": [
        {
          "internalType": "uint256",
          "name": "",
          "type": "uint256"
        }
      ],
      "payable": false,
      "stateMutability": "view",
      "type": "function"
    },
    {
      "constant": true,
      "inputs": [],
      "name": "time_period",
      "outputs": [
        {
          "internalType": "uint256",
          "name": "",
          "type": "uint256"
        }
      ],
      "payable": false,
      "stateMutability": "view",
      "type": "function"
    },
    {
      "constant": true,
      "inputs": [],
      "name": "tradeCountIter",
      "outputs": [
        {
          "internalType": "uint256",
          "name": "",
          "type": "uint256"
        }
      ],
      "payable": false,
      "stateMutability": "view",
      "type": "function"
    },
    {
      "constant": true,
      "inputs": [
        {
          "internalType": "uint256",
          "name": "",
          "type": "uint256"
        }
      ],
      "name": "trades",
      "outputs": [
        {
          "internalType": "uint256",
          "name": "time_period",
          "type": "uint256"
        },
        {
          "internalType": "address",
          "name": "sender",
          "type": "address"
        },
        {
          "internalType": "address",
          "name": "buyer",
          "type": "address"
        },
        {
          "internalType": "uint256",
          "name": "kwh",
          "type": "uint256"
        },
        {
          "internalType": "uint256",
          "name": "price",
          "type": "uint256"
        },
        {
          "internalType": "uint256",
          "name": "iteration",
          "type": "uint256"
        }
      ],
      "payable": false,
      "stateMutability": "view",
      "type": "function"
    },
    {
      "constant": false,
      "inputs": [
        {
          "internalType": "address",
          "name": "acc",
          "type": "address"
        },
        {
          "internalType": "bool",
          "name": "role",
          "type": "bool"
        },
        {
          "internalType": "uint8",
          "name": "build",
          "type": "uint8"
        },
        {
          "internalType": "bool",
          "name": "user",
          "type": "bool"
        }
      ],
      "name": "addPeer",
      "outputs": [],
      "payable": false,
      "stateMutability": "nonpayable",
      "type": "function"
    },
    {
      "constant": false,
      "inputs": [
        {
          "internalType": "address",
          "name": "s",
          "type": "address"
        },
        {
          "internalType": "address",
          "name": "b",
          "type": "address"
        },
        {
          "internalType": "uint256",
          "name": "amount",
          "type": "uint256"
        },
        {
          "internalType": "uint256",
          "name": "price_c",
          "type": "uint256"
        }
      ],
      "name": "addTradeBid",
      "outputs": [],
      "payable": false,
      "stateMutability": "nonpayable",
      "type": "function"
    },
    {
      "constant": false,
      "inputs": [
        {
          "internalType": "address",
          "name": "s",
          "type": "address"
        },
        {
          "internalType": "uint256",
          "name": "res",
          "type": "uint256"
        }
      ],
      "name": "addLocalRes",
      "outputs": [],
      "payable": false,
      "stateMutability": "nonpayable",
      "type": "function"
    }
  ],
  "bytecode": "0x6080604052600160035560016004556040518060400160405280600a81526020017f30392f31302f3230323000000000000000000000000000000000000000000000815250600590805190602001906200005b92919062000293565b503480156200006957600080fd5b50620000947328533267708123eb23d50c34a49ed7eb0d0c06a560018060016200014260201b60201c565b620000be73aeda4d57bf6be1e2d68d08f0e6d471e0fb27f4a760018060016200014260201b60201c565b620000e8738dcd9e1535de39a4df47243e982e2c8098ad156660018060016200014260201b60201c565b62000112730263e592ca8c92a041a49c93424ac45850b928aa60018060016200014260201b60201c565b6200013c7331d5154d76b65338f05099fd32f55cbd722bdcb960018060016200014260201b60201c565b62000342565b6001600081548092919060010191905055506040518060a0016040528060015481526020018573ffffffffffffffffffffffffffffffffffffffff16815260200184151581526020018360ff1681526020018215158152506000808673ffffffffffffffffffffffffffffffffffffffff1673ffffffffffffffffffffffffffffffffffffffff1681526020019081526020016000206000820151816000015560208201518160010160006101000a81548173ffffffffffffffffffffffffffffffffffffffff021916908373ffffffffffffffffffffffffffffffffffffffff16021790555060408201518160010160146101000a81548160ff02191690831515021790555060608201518160010160156101000a81548160ff021916908360ff16021790555060808201518160010160166101000a81548160ff02191690831515021790555090505050505050565b828054600181600116156101000203166002900490600052602060002090601f016020900481019282601f10620002d657805160ff191683800117855562000307565b8280016001018555821562000307579182015b8281111562000306578251825591602001919060010190620002e9565b5b5090506200031691906200031a565b5090565b6200033f91905b808211156200033b57600081600090555060010162000321565b5090565b90565b610b5280620003526000396000f3fe608060405234801561001057600080fd5b50600436106100b45760003560e01c8063323046b111610071578063323046b1146103265780636168474f146103a95780637b47a656146103c7578063ae6664e014610430578063d74294dc1461044e578063f0336a4e146104a6576100b4565b80630a055642146100b95780630c0399a4146101075780631b856524146101255780631c8590ba1461019d5780631e6c598e1461024b5780631edbfef414610308575b600080fd5b610105600480360360408110156100cf57600080fd5b81019080803573ffffffffffffffffffffffffffffffffffffffff169060200190929190803590602001909291905050506104c4565b005b61010f610576565b6040518082815260200191505060405180910390f35b61019b6004803603608081101561013b57600080fd5b81019080803573ffffffffffffffffffffffffffffffffffffffff169060200190929190803573ffffffffffffffffffffffffffffffffffffffff169060200190929190803590602001909291908035906020019092919050505061057c565b005b6101df600480360360208110156101b357600080fd5b81019080803573ffffffffffffffffffffffffffffffffffffffff1690602001909291905050506107f8565b604051808681526020018573ffffffffffffffffffffffffffffffffffffffff1673ffffffffffffffffffffffffffffffffffffffff168152602001841515151581526020018360ff1660ff168152602001821515151581526020019550505050505060405180910390f35b6102776004803603602081101561026157600080fd5b8101908080359060200190929190505050610875565b604051808781526020018673ffffffffffffffffffffffffffffffffffffffff1673ffffffffffffffffffffffffffffffffffffffff1681526020018573ffffffffffffffffffffffffffffffffffffffff1673ffffffffffffffffffffffffffffffffffffffff168152602001848152602001838152602001828152602001965050505050505060405180910390f35b6103106108fe565b6040518082815260200191505060405180910390f35b61032e610904565b6040518080602001828103825283818151815260200191508051906020019080838360005b8381101561036e578082015181840152602081019050610353565b50505050905090810190601f16801561039b5780820380516001836020036101000a031916815260200191505b509250505060405180910390f35b6103b16109a2565b6040518082815260200191505060405180910390f35b61042e600480360360808110156103dd57600080fd5b81019080803573ffffffffffffffffffffffffffffffffffffffff169060200190929190803515159060200190929190803560ff1690602001909291908035151590602001909291905050506109a8565b005b610438610af9565b6040518082815260200191505060405180910390f35b6104906004803603602081101561046457600080fd5b81019080803573ffffffffffffffffffffffffffffffffffffffff169060200190929190505050610aff565b6040518082815260200191505060405180910390f35b6104ae610b17565b6040518082815260200191505060405180910390f35b6000808373ffffffffffffffffffffffffffffffffffffffff1673ffffffffffffffffffffffffffffffffffffffff16815260200190815260200160002060010160169054906101000a900460ff1661051c57600080fd5b600a6000815480929190600101919050555080600960003373ffffffffffffffffffffffffffffffffffffffff1673ffffffffffffffffffffffffffffffffffffffff168152602001908152602001600020819055505050565b60035481565b6000808573ffffffffffffffffffffffffffffffffffffffff1673ffffffffffffffffffffffffffffffffffffffff16815260200190815260200160002060010160169054906101000a900460ff166105d457600080fd5b6000808473ffffffffffffffffffffffffffffffffffffffff1673ffffffffffffffffffffffffffffffffffffffff16815260200190815260200160002060010160169054906101000a900460ff1661062c57600080fd5b8373ffffffffffffffffffffffffffffffffffffffff163373ffffffffffffffffffffffffffffffffffffffff161461066457600080fd5b8273ffffffffffffffffffffffffffffffffffffffff163373ffffffffffffffffffffffffffffffffffffffff16141561069d57600080fd5b60026040518060c0016040528060045481526020018673ffffffffffffffffffffffffffffffffffffffff1681526020018573ffffffffffffffffffffffffffffffffffffffff168152602001848152602001838152602001600354815250908060018154018082558091505090600182039060005260206000209060060201600090919290919091506000820151816000015560208201518160010160006101000a81548173ffffffffffffffffffffffffffffffffffffffff021916908373ffffffffffffffffffffffffffffffffffffffff16021790555060408201518160020160006101000a81548173ffffffffffffffffffffffffffffffffffffffff021916908373ffffffffffffffffffffffffffffffffffffffff160217905550606082015181600301556080820151816004015560a0820151816005015550505060066000815480929190600101919050555050505050565b60006020528060005260406000206000915090508060000154908060010160009054906101000a900473ffffffffffffffffffffffffffffffffffffffff16908060010160149054906101000a900460ff16908060010160159054906101000a900460ff16908060010160169054906101000a900460ff16905085565b6002818154811061088257fe5b90600052602060002090600602016000915090508060000154908060010160009054906101000a900473ffffffffffffffffffffffffffffffffffffffff16908060020160009054906101000a900473ffffffffffffffffffffffffffffffffffffffff16908060030154908060040154908060050154905086565b60065481565b60058054600181600116156101000203166002900480601f01602080910402602001604051908101604052809291908181526020018280546001816001161561010002031660029004801561099a5780601f1061096f5761010080835404028352916020019161099a565b820191906000526020600020905b81548152906001019060200180831161097d57829003601f168201915b505050505081565b600a5481565b6001600081548092919060010191905055506040518060a0016040528060015481526020018573ffffffffffffffffffffffffffffffffffffffff16815260200184151581526020018360ff1681526020018215158152506000808673ffffffffffffffffffffffffffffffffffffffff1673ffffffffffffffffffffffffffffffffffffffff1681526020019081526020016000206000820151816000015560208201518160010160006101000a81548173ffffffffffffffffffffffffffffffffffffffff021916908373ffffffffffffffffffffffffffffffffffffffff16021790555060408201518160010160146101000a81548160ff02191690831515021790555060608201518160010160156101000a81548160ff021916908360ff16021790555060808201518160010160166101000a81548160ff02191690831515021790555090505050505050565b60015481565b60096020528060005260406000206000915090505481565b6004548156fea265627a7a72315820963d26685a1d3d7e5c649496a5f245d2d328ab1079a2a37c01251e36ad1a5e2d64736f6c63430005100032",
  "source": "pragma solidity ^0.5.16;\r\n\r\ncontract Energy {\r\n    //this contract is recalled for each time period\r\n    // Model a Peer\r\n    struct Peer {\r\n        uint id;\r\n        address account;\r\n        bool prosumer;\r\n        uint8 building; //0 for commercial and 1 for residential\r\n        bool isPeer;\r\n    }\r\n\r\n    //create an admin struct/private variable?\r\n\r\n     //constructor\r\n     constructor () public {\r\n        addPeer(0x28533267708123eB23D50c34a49ed7eB0D0c06a5, true, 1, true);\r\n        addPeer(0xAedA4d57bf6be1e2d68D08f0E6D471E0fB27f4A7, true, 1, true);\r\n        addPeer(0x8DcD9E1535de39A4Df47243e982e2c8098Ad1566, true, 1, true);\r\n        addPeer(0x0263E592ca8C92a041a49C93424AC45850b928aa, true, 1, true);\r\n        addPeer(0x31D5154d76B65338f05099Fd32F55cBD722BdcB9, true, 1, true);\r\n    }\r\n    \r\n    //add peer: admin sets this (declare admin account here)\r\n    function addPeer (address acc, bool role, uint8 build, bool user) public{\r\n        //require(msg.sender == 0x7a0429BC9Be5e4B555C06B5dEc4A385d2eA1D3b8);\r\n        peersCount ++;\r\n        peers[acc] = Peer(peersCount, acc, role, build, user);\r\n    }\r\n    \r\n    // Store Peers using their addresses\r\n    // Fetch Peers\r\n    mapping(address => Peer) public peers;\r\n    // Store Peers Count\r\n    uint public peersCount;\r\n    \r\n    // list of trade_bids for current iteration for current time_period\r\n    Trade_bid [] public trades;\r\n    \r\n    //keep public track of iteration for this time-period: admin sets this?\r\n    uint public iteration = 1;\r\n    \r\n    //keep public track of time_period: admin sets this?\r\n    uint public time_period = 1;\r\n    \r\n    //keep public track of date: admin sets this?\r\n    string public date = \"09/10/2020\";\r\n    \r\n    //keep track of number of how trade bids have been submitted for this iteration\r\n    uint public tradeCountIter;\r\n\r\n     //NB: will need to split up kwh into decimals as well\r\n    struct Trade_bid {\r\n        //string date;\r\n        uint time_period;\r\n        address sender;\r\n        address buyer;\r\n        uint kwh;\r\n        uint price; //given in cents\r\n        uint iteration;\r\n    }\r\n    //variables to track if buying and selling addresses are members of microgrid\r\n    Peer private temp;\r\n    \r\n    //add trade bid to list of trade bids for this iteration\r\n    function addTradeBid (address s, address b, uint amount, uint price_c) public {\r\n        //check if sender address is members of the microgrid\r\n        require(peers[s].isPeer);\r\n        //check if buyer address is member of the microgrid\r\n        require(peers[b].isPeer);\r\n        //requires that the person adding the trade bid is the account set as the sender\r\n        require(msg.sender == s);\r\n        //requires that the sender is not also the buyer\r\n        require(msg.sender != b);\r\n        trades.push(Trade_bid(time_period, s, b, amount, price_c, iteration));\r\n        tradeCountIter++;\r\n        \r\n    }\r\n\r\n    //maps addresses to local residuals for addresses \r\n    //NB: will need to decide by what magnitude of 10 we will be multiplying actual residual value in order\r\n    // to store it in this mapping\r\n    mapping (address => uint) public localres;\r\n\r\n    //keep track of how many peers have submitted local residuals for this iteration \r\n    uint public localresCounter;\r\n\r\n\r\n    //add trade bid to list of trade bids for this iteration\r\n    function addLocalRes (address s, uint res) public {\r\n        //requires that person submitting local residual to blockchain is a member of the microgrid\r\n        require(peers[s].isPeer);\r\n        localresCounter++;\r\n        localres[msg.sender] = res;\r\n        \r\n    }\r\n\r\n    \r\n}",
  "sourcePath": "C:/Users/Inessa/Desktop/4th_Year/FYP/Methodology_Eth/energy/contracts/Energy.sol",
  "compiler": {
    "name": "solc",
    "version": "0.5.16+commit.9c3226ce.Emscripten.clang"
  },
  "schemaVersion": "3.3.0",
  "updatedAt": "2020-10-10T00:59:05.220Z",
  "networkType": "ethereum",
  "devdoc": {
    "methods": {}
  },
  "userdoc": {
    "methods": {}
  }
}